:100000000C94D4000C94F1000C94F1000C94F100C9
:100010000C94F1000C94F1000C94F1000C94F1009C
:100020000C94F1000C94F1000C9412040C944C0408
:100030000C94F1000C94F1000C94F1000C94F1007C
:100040000C94F1000C94F1000C94F1000C94F1006C
:100050000C94F1000C94F1000C94F1000C94F1005C
:100060000C94F1000C94F1000C94F1000C94F1004C
:100070000C94F1000C94F1000C94F1000C94F1003C
:100080000C94F1000C94F1000C94F1000C94F1002C
:100090000C94F1000C94F1000C94F1000C94F1001C
:1000A0000C94F1000C94F1000C94F100000100009C
:1000B0008B011200020000480143000300004401CC
:1000C00004010309041A012802030904E4003403AB
:1000D000030904D6000C0C0354003000300030003B
:1000E00039000000340346004D0043002000460064
:1000F00052005500200045004500500052004F00BE
:100100004D002000500072006F0067007200610017
:100110006D006D0065007200000028034900410079
:100120004D00200045006C00650063007400720003
:100130006F006E0069006300200047006D006200E0
:10014000480000000403090409024300020100C042
:10015000320904000001020201000524001001051B
:10016000240101010424020605240600010705827A
:100170000310004009040100020A00000007050303
:100180000240000007058402400000120100020244
:10019000000010C016E1050001010203010001C1C9
:1001A000120180360181360011241FBECFEFDAE044
:1001B000DEBFCDBF11E0A0E0B1E0E4E3FBE002C0B0
:1001C00005900D92A830B107D9F721E0A8E0B1E081
:1001D00001C01D92AC30B207E1F70E9407020C94F7
:1001E00098050C940000269A879A549A6E98769AED
:1001F00055985D9853985B9852985A980895613035
:10020000E1F088F0623011F5823018F08230F1F4BC
:1002100006C025B190E4922795B9811117C081B32A
:10022000805881BB0895823018F0823079F403C081
:100230002E9881110BC08F980895823018F082306B
:1002400029F403C02E9A811101C08F9A089581303C
:1002500051F038F0823041F49BB180E189278BB9AD
:1002600008955C9808955C9A08958CB186FB882760
:1002700080F9089589B185FB882780F9089529B10F
:1002800039B132FB882780F990E0880F991F23FB52
:10029000992790F9892B08951092BC005898599885
:1002A0001092B90080E28093B80008958093BB005B
:1002B00084E88093BC008091BC0087FFFCCF089548
:1002C00084EA8093BC008091BC0087FFFCCF089536
:1002D000FF920F931F93CF93DF93C82FF62E072F14
:1002E000142F0E9460018C2F880F0E945601CF2D81
:1002F000D02FCE01810F911D8C01C017D10721F0A5
:1003000089910E945601F9CF84E98093BC00DF9166
:10031000CF911F910F91FF9008950F931F93CF934B
:10032000DF93D82F8B01C42F0E9460018D2F880F7F
:100330008F5F0E945601F80180E090E04C2F50E062
:10034000BA0161507109A4ECB4E884179507C4F4AC
:100350008617970719F4B093BC0002C0A093BC00A5
:1003600021E533ECC091BC00C7FD05C02150310927
:10037000C9F780E009C02091BB0021930196E5CF29
:1003800084E98093BC0081E0DF91CF911F910F91B0
:100390000895CF93C82F0E946001CC0FC093BB007B
:1003A00084E88093BC008091BC0087FFFCCF8091E3
:1003B000B900887F883129F084E98093BC0080E00F
:1003C00004C084E98093BC0081E0CF9108950E942D
:1003D000F30061E080E00E94FF000E9467030E943A
:1003E000800381110EC062E081E00E94FF002FE7D0
:1003F00088E391E0215080409040E1F700C0000088
:10040000EECF0E944C0160E080E00C94FF00CF939F
:10041000DF93CDB7DEB7C354D1090FB6F894DEBF72
:100420000FBECDBF0E94E7010E94C00338E0F32E4B
:100430008E010F5F1F4F0E943501811102C061E0E4
:1004400001C060E082E00E94FF000E943A01811139
:1004500002C081E001C080E00E9427010E94A60343
:10046000882349F361E081E00E94FF000E9483033A
:1004700099278736910509F447C0B4F4873591056B
:1004800009F4E5C04CF48035910509F446C0823585
:10049000910509F472C00FC182369105D1F08636FC
:1004A000910509F4B1C007C18337910509F492C0E1
:1004B0003CF48037910559F182379105A9F1FBC0D1
:1004C0008637910509F497C08737910509F49EC0D6
:1004D000F2C00E94A603813089F40E948303F82EA3
:1004E0008FEF8F0D803420F486E00E94D3030AC082
:1004F0008FE30E94D30328E0F22EDDC00E94A60302
:100500008111D6C08F2DD5C00E943F01D2C00E945C
:100510003501882339F080E0CCC00E943A0188235D
:1005200009F4C7C081E0C5C00E94A603823009F06B
:10053000BFC086E00E94D3030E948303E82E0E947E
:100540008303898382E00E94270141E0B8018E2D58
:100550000E9468014F2DB8018E2D0E948D0182E00E
:100560000E9427016801F60181916F010E94D30367
:100570008C2D801B8F15B8F39EC00E94A60383307C
:1005800009F096C086E00E94D3030E948303E82E00
:100590000E948303D82E0E948303D9828A8382E03B
:1005A0000E94270142E0B8018E2D0E9468014F2D64
:1005B000B8018E2D0E948D0182E00E942701680102
:1005C000F60181916F010E94D3038C2D801B8F1542
:1005D000B8F371C0E12CFE2DF065DF2E8F2F0E9445
:1005E000C901813019F48D2D0E94D303E39488E072
:1005F000E812F1CF09C081E00E94D30381E00E949C
:10060000D30381E00E94D3038FEF53C00E94A6035F
:10061000833008F44DC00E94A603E82E9EEFA92E59
:10062000A80E86E00E94D3030E948303B82E0E9486
:100630008303898368018C2D801B8A1560F50E94D5
:100640008303F6018183FFEFCF1ADF0AF4CF0E9404
:10065000A603843068F10E94A603E82E8DEFA82E31
:10066000AE0C86E00E94D3030E948303B82E0E9442
:100670008303D82E0E948303D9828A8368018C2D3C
:10068000801B8A1540F40E948303F6018283FFEFEA
:10069000CF1ADF0AF4CF82E00E9427014FEF4E0D00
:1006A000B8018B2D0E94680182E00E94270103C0DF
:1006B0008FE30E94D3030E94C00360E081E00E94A8
:1006C000FF00B9CE8091E80080FFFCCF089581E063
:1006D0008093D70080EA8093D80082E089BD09B476
:1006E00000FEFDCF80E98093D8001092E0001092C8
:1006F0000B01109208018CE08093E2007894089539
:1007000080910B0108959FB7F89480910B01882385
:1007100069F083E08093E9002BE68091E80085FD95
:1007200009C082FF03C02093E800F7CF9FBF8FEF7F
:100730009FEF08958091F1002091E80025FD03C00E
:100740002BE62093E8009FBF90E008952FB7F89420
:1007500080910B01811102C080E010C083E0809382
:10076000E9008091F200811109C09091E80092FFA8
:10077000F3CF95FDF1CF9BE69093E8002FBF08954E
:1007800080910B01882371F08FB7F89493E09093D8
:10079000E9002BE69091E80095FF03C02093E80064
:1007A000F9CF8FBF089590910B01992371F09FB7F6
:1007B000F89424E02093E90020910901222349F0D4
:1007C0002091E80025FD03C09FBF8FEF0895109290
:1007D00009012091E400275E34E04091E80045FDE6
:1007E00012C09FBF9091E400291304C081E0809360
:1007F0000901EBCF90910B01992339F39FB7F8943E
:100800003093E900EACF8093F1008091E80085FD04
:1008100003C08AE38093E80085E080930A019FBFCC
:1008200080E008951F920F920FB60F9211248F93BC
:100830009F938091E1001092E10083FF11C010921C
:10084000E90091E09093EB001092EC0092E190931C
:10085000ED0098E09093F00010920B0110920801C7
:1008600082FF13C080910B01882379F080910A01E7
:10087000882359F0815080930A01811106C084E0D9
:100880008093E9008AE38093E8009F918F910F9015
:100890000FBE0F901F9018951F920F920FB60F92D8
:1008A0001124FF920F931F932F933F934F935F93C6
:1008B0006F937F938F939F93AF93BF93CF93DF9368
:1008C000EF93FF931092E9008091E80083FF17C136
:1008D000F090F1008091F1000091F1009091F10011
:1008E00010E0192BC091F1009091F100D0E0D92BCC
:1008F0002091F1006091F10092EF9093E800863032
:1009000009F049C08CEA90E046ED50E0FC01A59169
:10091000B4910A171B07D9F4FC013296A591B49142
:10092000CA17DB07A1F4FC01349645915491FC01F0
:100930003696849130E0362B2F3F310519F010F0B8
:100940002FEF30E0281708F4822F3EEF0CC00796F7
:1009500048175907D9F6D3C0490F511D891B309349
:10096000E8008823A9F09091E800292F2570D9F399
:1009700092FDC8C0982F813108F090E1FA01292F2B
:10098000222351F364916093F10021503196F8CF06
:10099000903149F3B7C0853049F48EEF8093E80079
:1009A0000E94620300680093E300ACC0893059F5EF
:1009B000F110A5C000930B011092080110920A01DA
:1009C0008EEF8093E80041E08DE991E04093E900EB
:1009D0009C012F5F3F4FFC0154915093EB00552336
:1009E00059F0F90124912093EC009C012D5F3F4FB9
:1009F0003196E491E093ED004F5F453011F0C9016D
:100A0000E5CF8EE177C0883051F4F0E8FF1277C06F
:100A10000E94620380910B018093F10049C08132F2
:100A200081F481EAF8126BC00E946203E0E0F1E019
:100A300087E091E021912093F1008E179F07D1F775
:100A400037C08032A9F491E2F91259C08091E800D0
:100A500082FFFCCFE0E0F1E087E091E02091F1003F
:100A600021938E179F07D1F78BEF8093E80020C06A
:100A7000823241F4E1E2FE1242C0009308010E947A
:100A8000620316C0811118C00E946203F2E8FF12CF
:100A90000AC0C093E9008091EB0085FB882780F9AC
:100AA0001092E90001C080E08093F1001092F10003
:100AB0008EEF8093E80026C0982F9D7F9130F9F447
:100AC00092E0F9121CC0012BD1F4CF779FEF9C0F5D
:100AD0009430A8F49EEF9093E800C093E90083302F
:100AE00071F089E18093EB0081E090E001C0880F14
:100AF000CA95EAF78093EA001092EA0003C081E207
:100B00008093EB00FF91EF91DF91CF91BF91AF9177
:100B10009F918F917F916F915F914F913F912F9115
:100B20001F910F91FF900F900FBE0F901F9018957F
:040B3000F894FFCF67
:080B340000E1000000000800D0
:00000001FF
